:020000040800F2
:10000000580900209D010008FB230008671D000817
:10001000F9230008B7080008892B00080000000039
:10002000000000000000000000000000BD260008E5
:10003000B908000800000000FD230008BF260008E2
:10004000B7010008B7010008B7010008B7010008B0
:10005000B7010008B7010008B7010008B7010008A0
:10006000B7010008B7010008B7010008B701000890
:10007000B7010008B7010008B7010008B701000880
:10008000B7010008B7010008B7010008B701000870
:10009000B7010008B7010008B7010008FD08000813
:1000A000B7010008B7010008B7010008B701000850
:1000B000B7010008B7010008B7010008B701000840
:1000C000B7010008B7010008B7010008B701000830
:1000D000B7010008B7010008B7010008B701000820
:1000E000BD080008B7010008B7010008B701000803
:1000F000B7010008B7010008B7010008B701000800
:10010000B7010008B7010008B7010008B7010008EF
:10011000B7010008B7010008B7010008B7010008DF
:10012000B7010008B7010008B7010008B7010008CF
:10013000B7010008B7010008B7010008B7010008BF
:10014000B7010008B7010008B7010008B7010008AF
:10015000B7010008B7010008B7010008B70100089F
:10016000B7010008B7010008B7010008B70100088F
:10017000B7010008B70100080000000000000000FF
:10018000B7010008B7010008DFF80CD000F040FB11
:1001900000480047CD46000858090020064880471F
:1001A00006480047FEE7FEE7FEE7FEE7FEE7FEE75C
:1001B000FEE7FEE7FEE7FEE73527000889010008B5
:1001C0002DE9F05F0546002092469B46884606468C
:1001D000814640241BE0284641464746224600F01F
:1001E0001EF953465A46C01A914110D3114618467B
:1001F000224600F005F92D1A67EB01084F4622460A
:100200000120002100F0FCF817EB00094E41201EF0
:10021000A4F10104DFDC484631462A46434600F09B
:1002200000B830BCBDE8C09F40EA01039B0703D083
:1002300009E008C9121F08C0042AFAD203E011F825
:10024000013B00F8013B521EF9D27047D2B201E0E7
:1002500000F8012B491EFBD270470022F6E710B5CB
:1002600013460A4604461946FFF7F0FF204610BD24
:10027000421C10F8011B0029FBD1801A70472DE9A0
:10028000F04D81EA030404F0004B21F000451446D0
:100290004FF0000A23F0004150EA050220D054EA52
:1002A00001021DD0C5F30A570246C5F31303C1F37B
:1002B0001300C1F30A5640F4801543F48013A7EBF2
:1002C0000608101BD64608F2FD3873EB050002D372
:1002D00008F1010801E092185B41B8F1000F03DA60
:1002E00000200146BDE8F08D00204FF48011064645
:1002F00084460EE0171B73EB050705D3121B63EB57
:10030000050306434CEA010C49084FEA30009218F5
:100310005B4150EA0107EDD152EA030012D082EAB4
:10032000040083EA0501084305D0101BAB4106D247
:100330000122002306E000224FF0004302E06FF0AC
:10034000010253101AEB06004CEB085110EB0A00A7
:1003500041EB0B01BDE8F04D00F0A8B80EB540F23E
:10036000334102910021CDE900110A460B4600F00D
:10037000ACF803B000BD00F0004230F000400AD0FD
:10038000C10D01F56071C0F3160042EA0151C208C7
:1003900040071143704700200146704701F00043B9
:1003A00030B421F0004150EA010206D00A0DA2F556
:1003B0006072C1F31301002A02DC30BC00207047D8
:1003C000440F44EAC104C100E01830BC00EBC25045
:1003D00000F035B830B50B4601460020202201243C
:1003E00009E021FA02F59D4205D303FA02F5491B03
:1003F00004FA02F52844151EA2F10102F1DC30BD19
:10040000202A04DB203A00FA02F1002070479140D4
:10041000C2F1200320FA03F3194390407047202AC9
:1004200004DB203A21FA02F00021704721FA02F39E
:10043000D040C2F12002914008431946704700297C
:10044000A8BF7047401C490008BF20F0010070475A
:1004500010B4B0FA80FC00FA0CF050EA010404BFBA
:1004600010BC704749B1CCF1200421FA04F411FA10
:100470000CF118BF012121430843A3EB0C01CB1D54
:100480004FEA00614FEA102042BF002010BC7047C5
:1004900000EBC35010440029A4BF10BC7047401C9F
:1004A000490008BF20F0010010BC704710B5141EB1
:1004B00073F1000408DA401C41F1000192185B411D
:1004C0001A4301D120F0010010BD2DE9F04D9246F4
:1004D0009B4611B1B1FA81F202E0B0FA80F220320B
:1004E0009046FFF78DFF04460F4640EA0A0041EAB6
:1004F0000B0153465A46084313D0114653EA0100F4
:1005000019D0C8F140025046FFF789FF05460E4654
:10051000504659464246FFF773FF084305D0012075
:1005200004E020463946BDE8F08D0020054346EA48
:10053000E0762C4337430A986305E40AA0EB0800F1
:100540000022FD0A44EA47540A3002D50020014641
:10055000E9E7010510196941DDE90845001969411C
:10056000BDE8F04DA2E72DE9FE4F804681EA030089
:10057000C00F0C46009021F0004123F00045B8EB7D
:100580000200A94105D24046214690461C460B4632
:10059000024623F00040104347D0270DC7F30A005E
:1005A000C3F30A510290401A019040286BDAC3F35A
:1005B000130040F4801B0098924620B10023D2EB38
:1005C000030A63EB0B0B01985946C0F140025046F9
:1005D000FFF716FF06460D4650465946019A00F0B1
:1005E00029F910EB08006141002487EA115284EADE
:1005F000E7731A4340D0009A62B3019A012A4FEA86
:10060000075215DC001B61EB02014FF0004202EAC9
:100610000752CDE90042001C41F5801132462B46BD
:10062000FFF753FF03B000F045B840462146F9E715
:10063000001B61EB0201001C41F5801300185B41B7
:100640002018A2F5001747EB030140EAD570B61950
:100650006D4111E06D084FEA360645EAC0754FEA74
:100660000752001B61EB0201001C41F58011490893
:100670004FEA30000019514132462B4603B000F0DA
:100680001CB8FFF713BF0098012240000023D0EBF5
:10069000020263EBE073009821464FEAE074B8EB86
:1006A000000061EB0401E9E783F000435BE781F0C0
:1006B000004158E730BCBDE8C08F30BCBDE8C04F3A
:1006C000FFF7DFBF2DE9FE4F81EA030404F0004489
:1006D00021F0004100944FF0000B23F0004350EA5A
:1006E00001045ED052EA03045BD0C3F30A54C1F3A1
:1006F0000A552C44A4F2F3340194A0FB0254C1F334
:10070000130141F48011C3F3130343F4801301FB7D
:10071000024400FB034E840A970A44EA815447EAE4
:100720008357A4FB076802958D0A05FB07854FEAEE
:10073000932C04FB0C542705029D4FEA065847EA08
:100740001637B5EB08056EEB070C870E920E47EADD
:10075000811742EA8312A7FB0201B6EB0B0164EB9F
:1007600000042B0D43EA0C335E1844EB1C50DA46B0
:100770005146E7FB0201C5F313044FEA0B3343EA8A
:1007800014534FEA0432019C43EA0603A4F10C041B
:100790000294009CCDE900B4FFF797FE03B000F08F
:1007A00003B800200146F9E730BCBDE8C08FC1F3B3
:1007B0000A52C1F3130140F2FF3341F480119A420F
:1007C00002DA00200146704740F233439A42A2F217
:1007D000334202DC5242FFF722BEFFF711BE000097
:1007E00030B5041E71F1000404DB4FF000444042B8
:1007F00064EB0101141E73F1000405DB1C464FF08D
:100800000043524263EB0403994208BF904230BD5B
:10081000064C074D06E0E06840F0010394E807004D
:1008200098471034AC42F6D3FFF7B2FCA848000852
:10083000C8480008202A06DBCB17203A41FA02F00C
:1008400043EAE07306E041FA02F3D040C2F120022D
:10085000914008431946704770B58D1810F8014B48
:1008600014F0030201D110F8012B231106D110F866
:10087000013B03E010F8016B01F8016B521EF9D146
:10088000ABB110F8012B04F00C048A1A0C2C03D025
:10089000A2EB84129B1C08E010F8014BA2EB04228F
:1008A000F8E712F8014B01F8014B5B1EF9D5A9429C
:1008B000D4D3002070BDFEE77047000010B54FF4A0
:1008C000806000F03FF84FF4006000F03BF84FF418
:1008D000005000F037F84FF4804000F033F84FF448
:1008E000004000F02FF80448016811B100220260B6
:1008F00010BD0121016010BD9801002010B520201D
:1009000000F020F8402000F01DF8802000F01AF8D8
:10091000BDE810404FF4807000F014B870B5044684
:1009200000F054F90546601C02D0044800780444E5
:1009300000F04CF9401BA042FAD370BD000000202B
:1009400070470000044910B50A68024202D00860EE
:10095000FFF7F6FF10BD0000140401402DE9F04F31
:10096000DFF83492002309F1040A012403250AF177
:10097000040B87B00F270BF1040E04E104FA03F611
:1009800032407CD0D1F804C0BCF1010F08D0BCF1DA
:10099000020F05D0BCF1110F02D0BCF1120F29D10A
:1009A000D0F808C0CDF800C04FEA430C05FA0CF8A7
:1009B000CDF80CC0DDF800C02CEA080CCDF800C062
:1009C000D1F80C80DDF80CC008FA0CF8DDF800C096
:1009D00048EA0C08C0F80880D0F8048091F804C0F8
:1009E00028EA0608CCF3001C0CFA03FC4CEA080CBD
:1009F000C0F804C0D1F804806FEA080C5FEA8C7C70
:100A000009D1D0F82CC02CEA060CC8F3C0069E40D1
:100A100046EA0C06C662D0F80CC04FEA430805FA55
:100A200008F62CEA060CCDF8148002968E6806FAB9
:100A300008F646EA0C06C6604E68022E01D0122E59
:100A400015D1DE0800EB86060396366A4FEA437C32
:100A50004FEADC6807FA08FC26EA0C06D1F810C059
:100A60000CFA08FC4CEA060C039EC6F820C0066887
:100A7000DDF808C026EA0C0691F804C000E081E029
:100A8000DDF814800CF0030C0CFA08FC4CEA060CA0
:100A9000C0F800C04E68F60074D5404ED6F860C06D
:100AA0004CF0010CC6F860C0366E23F0030C06F063
:100AB000010600963A4E66440296D6F808C09E0794
:100AC0004FEA167807FA08F62CEA060CB0F1904FB8
:100AD00004D0344EB04203D101261BE0002619E0B9
:100AE000314EB04201D1022614E0304EB04201D165
:100AF00003260FE02E4EB04201D104260AE02D4E0F
:100B0000B04201D1052605E02B4EB04201D10626A8
:100B100000E0072606FA08F646EA0C06DDF808C0EB
:100B2000CCF80860D9F80060CC46D1F80480964330
:100B30005FEAC83800D51643CCF80060DAF80060E8
:100B4000D446D1F8048096435FEA883800D516432E
:100B5000CCF80060DBF80060DC46D1F804809643F6
:100B60005FEAC82800D51643CCF80060DEF80060C4
:100B7000F446D1F8048096435FEA882800D51643EE
:100B8000CCF800605B1C0A6832FA03F67FF4F6AE1C
:100B900007B000F013B8000000040140001002404C
:100BA000000001400004004800080048000C004814
:100BB00000100048001400480018004830BCBDE890
:100BC000C08F0AB1816170478162704701488068B7
:100BD000704700000000002090F84120202A24D116
:100BE00090F84020012A20D0012280F840202422C1
:100BF00080F841200268136823F001031360026843
:100C0000136823F480531360026813680B43136066
:100C100001680A6842F001020A60202180F8411050
:100C2000002180F8401008467047022070470000FD
:100C300070B5040004D094F84100002510B106E01E
:100C4000012070BD84F84050204600F078F924203F
:100C500084F841002068016821F0010101606068AA
:100C6000216820F0706008612068816821F40041EB
:100C70008160E0680128A06807D040F40440216842
:100C80008860E068022803D006E040F40040F6E700
:100C900021684FF40060486020684168114A1143A0
:100CA00041602068C16821F40041C160D4E90401B9
:100CB0000843A16940EA01202168C860D4E907011E
:100CC0000843216808602068016841F00101016063
:100CD0006564202084F84100256384F84250002098
:100CE00070BD0000008000022DE9F84F044690F826
:100CF0004100DDF828A01F4690468B4620287ED173
:100D000094F8400001287AD0012084F84000FFF7D1
:100D10005DFF0646012200901923D103204601F011
:100D20008DF8E0BB222084F84100102084F84200B6
:100D300000256564C4F8248067856563618D31484A
:100D4000FF274FF080784FF00079FF2903D92785DE
:100D50003A46009039E0618D218500903AE059468D
:100D6000204601F055F813E001F094F8B8B9206876
:100D7000406A616A0870606A401C6062208D401E93
:100D800080B22085618D491E6185618D01B168B198
:100D9000608D3246002851462046E5D100E002E051
:100DA00001F0BAF8D0B1012000F030B8534600226B
:100DB00080212046009601F041F80028F3D1608D93
:100DC000FF2804D927853A4600954346C7E7608D3A
:100DD0002085009594F828204B46C0E72168202004
:100DE000C86121684A68084B1A404A6084F841008B
:100DF00084F8425084F840500020D5E7FFE70220F5
:100E0000D2E700000024008000E800FE18BCBDE826
:100E1000E08F00002DE9F84F044690F84100DDF81E
:100E200028A01F4690468B4620287ED194F840008B
:100E300001287AD0012084F84000FFF7C7FE06465B
:100E4000012200901923D103204600F0F7FFE0BBF8
:100E5000212084F84100102084F8420000256564B8
:100E6000C4F8248067856563618D3148FF274FF0A2
:100E700080784FF00079FF2903D927853A46009002
:100E800039E0618D218500903AE05946204600F016
:100E9000BFFF13E001F066F8B8B9606A2168007816
:100EA0008862606A401C6062608D401E6085208D93
:100EB000401E80B22085618D01B168B1608D3246DF
:100EC000002851462046E5D100E002E001F024F878
:100ED000D0B1012000F030B85346002280212046D6
:100EE000009600F0ABFF0028F3D1608DFF2804D9F5
:100EF00027853A4600954346C7E7608D20850095D3
:100F000094F828204B46C0E721682020C86121685A
:100F10004A68084B1A404A6084F8410084F84250FD
:100F200084F840500020D5E7FFE70220D2E7000018
:100F30000020008000E800FE18BCBDE8E08F70478C
:100F400002488168027811448160704700000020E7
:100F500010B50024032000F071F8002000F008F81C
:100F600008B1012401E000F025F8204610BD000082
:100F700070B50E4E05460024307898B14FF47A7162
:100F8000B1FBF0F00A490968B1FBF0F000F016FE81
:100F900040B9102D06D200222946501E00F02EF82E
:100FA000756000E00124204670BD000000000020B4
:100FB0000C000020094808B5016E41F001010166EE
:100FC000016E01F001010091816D41F08051816558
:100FD000806D00F08050009008BD000000100240BD
:100FE000002809DB00F01F02012191404009800028
:100FF00000F1E020C0F8001170470000F0B40E4B83
:101000001B680C46C3F30223C3F10705042D00D966
:101010000425191D072901D2002300E0DB1E01264B
:1010200006FA05F1491E214099409E40761E164061
:101030003143F0BC02F04CBE0CED00E0064900F07C
:10104000070208684FF6FF03184040EA0220034AEF
:1010500010430860704700000CED00E00000FA0546
:101060001649B0F5007F0868C0F3412009D0022876
:1010700005D0086820F4C06040F48060086000205B
:1010800070470128FBD0086820F4C06040F400706D
:1010900008600B483222006850430A4AB0FBF2F065
:1010A000401C00E0401E4A69520501D50028F9D1D4
:1010B00048694005E3D503207047000000700040F8
:1010C0000C00002040420F000248006800F4C0609D
:1010D00070470000007000402DE9F84F04460027DB
:1010E0000088E54D3E46010504F1200B1DD5606EDC
:1010F00078B1B0F5800F11D0B0F5000F04D0B0F585
:10110000400F22D001270FE0E86840F48030E8600B
:101110001BE00021201D01F073F903E00021584677
:1011200001F004FA070010D03E462088C00426D5FE
:10113000A06EC0B1B0F1807F1AD0B0F1007F0DD0A9
:10114000B0F1407F19D0012718E0D5F88800616E12
:1011500020F440000843C5F88800E6E7E86840F45A
:101160008030E86009E00021201D01F049F903E02A
:101170000021584601F0DAF90746F7B13E462068EB
:1011800080033AD5A86D4FF00008C00009D4A86DBF
:1011900040F08050A865A86D4FF0010800F0805025
:1011A0000090DFF8D8A2DAF8001041F48071CAF894
:1011B0000010FFF70BFD814610E0D5F88800A16E06
:1011C00020F040700843C5F88800D8E7FFF7FEFC20
:1011D000A0EB0900022801D9032705E0DAF8000096
:1011E000C005F3D5002F7CD04FEA0706B8F1000FF9
:1011F00003D0A86D20F08050A8652078C00707D0E4
:10120000D5F88800A16B20F003000843C5F88800DA
:101210002078800707D5D5F88800E16B20F00C0016
:101220000843C5F888002078400707D5D5F888001E
:10123000216C20F030000843C5F8880020780007B2
:1012400007D5D5F88800616C20F0C0000843C5F8C8
:1012500088002078C00607D5D5F88800A16C20F456
:1012600040700843C5F888002078800607D5D5F877
:101270008800E16C20F440600843C5F888002088AD
:10128000800507D5D5F88800E16D20F4402008439B
:10129000C5F888002088400507D5D5F88800216E5C
:1012A00020F440100843C5F888002078400607D590
:1012B000D5F88800216D20F440500843C5F8880017
:1012C0002078000607D5D5F88800616D20F44040ED
:1012D0000843C5F888002088C00509D5D5F88800DE
:1012E00000E01CE0A16D20F440300843C5F8880000
:1012F00020884FF0006780044FF080684FD5D5F804
:101300008800E16E20F040600843C5F88800E06E78
:10131000B8423CD1E86840F48010E8603FE0D5F87E
:10132000900010F4407015D0D4F88410814211D090
:10133000D5F89000D5F8901020F4407041F4803139
:10134000C5F89010D5F8901021F48031C5F89010B0
:10135000C5F89000C00710D0FFF738FC074641F2EF
:10136000883906E0FFF732FCC11B494501D9032645
:101370003CE7D5F890008007F4D5D5F89000D4F874
:10138000841020F440700843C5F890002EE74045D3
:1013900005D10121201D01F033F800B10646206877
:1013A000000317D5D5F88800216F20F0406008436E
:1013B000C5F88800206FB84204D1E86840F4801076
:1013C000E86007E0404505D10121201D01F018F833
:1013D00000B106462068400317D5D5F88800616F34
:1013E00020F040600843C5F88800606FB84204D11F
:1013F000E86840F48010E86007E0404505D101212D
:10140000201D00F0FDFF00B10646208840041AD5DB
:10141000D5F88800A16F20F040500843C5F8880037
:10142000A06FB0F1805F03D0B0F1005F05D00AE09B
:101430000221201D00F0E4FF03E00221584601F0E4
:1014400075F800B106462088000407D5D5F8880055
:10145000E16F20F080400843C5F888002068C00391
:1014600007D555F8880FD4F8801020F000400843C5
:101470002860304600F004B80010024000700040C0
:1014800018BCBDE8E08F00002DE9F0470F460500CD
:1014900058D0404E306800F00700B84209D230689A
:1014A00020F0070038433060306800F00700B84291
:1014B00048D12878384CC0072CD06868032811D050
:1014C000022812D0216898B1490500293ADAA168AA
:1014D00021F003010143A160FFF778FB804641F250
:1014E000883910E021688901EFE721688903ECE77A
:1014F0008907EAE7FFF76AFBA0EB0801494502D933
:101500000320BDE8F087A068696800F00C00B0EB2C
:10151000810FEFD12878800705D5A068A96820F051
:10152000F0000843A060306800F00700B8420BD913
:10153000306820F0070038433060306800F0070062
:10154000B84201D00120DCE72878400705D5A06823
:10155000E96820F4E0600843A0602878000706D519
:10156000A068296920F4605040EAC100A06000F042
:101570003FF8A168094AC1F30311515C01F01F0152
:10158000C8400749086007480068BDE8F047FFF712
:10159000EFBC00000020024000100240604800083C
:1015A0000C000020040000200548064900688968F6
:1015B000054AC1F30221515C01F01F01C840704788
:1015C0000C00002000100240A04800080548064911
:1015D00000688968054AC1F3C221515C01F01F010E
:1015E000C84070470C00002000100240A0480008CE
:1015F00070B52549002318468A68CC6812F00C02A1
:1016000004F00306214C4FEA640509D00C2A05D0EA
:10161000042A32D0082A00D1284670BD012E10D1EC
:101620000B681B0704D4D1F89430C3F3032302E002
:101630000B68C3F30313164E56F82330DAB10C2AA5
:10164000EBD1C86800F00300022818D0032818D096
:101650001846CA68CB68C2F30212C3F30623434399
:10166000521CB3FBF2F2C868C0F34160401C40005A
:10167000B2FBF0F070BD184670BD204670BD20462C
:10168000E7E72846E5E70000001002400024F400E8
:10169000704800082DE9F84304006FD0FE4DA8689B
:1016A00000F00C06E86800F003072078C00664D557
:1016B00076B10C2E01D1012F0AD0A069002828682C
:1016C0007AD040F001002860FFF780FA80465DE0A4
:1016D0002868800702D5A0690028DED0216A286822
:1016E000000703D5286800F0F00004E0D5F8940066
:1016F000F02202EA1010814216D9084600F09AFF43
:1017000000283BD1286840F0080028602868216A3A
:1017100020F0F000084328606868E16920F47F4009
:1017200040EA0120686016E0286840F00800286060
:101730002868216A20F0F000084328606868E169A1
:1017400020F47F4040EA0120686026B9206A00F05A
:1017500071FF0028D5D1FFF74BFFA968CF4AC1F32D
:101760000311515C01F01F01C840CD490860CD480C
:101770000068FFF7FDFB00287ED12EE0CAE000BF25
:10178000FFF724FAA0EB0800022876D82868800723
:10179000F6D5286840F0080028602868216A20F003
:1017A000F000084328606868E16920F47F4040EA5F
:1017B0000120686011E0FFE720F001002860FFF7DA
:1017C00005FA804606E000BFFFF700FAA0EB08002C
:1017D0000228DAD828688007F6D42078C00740D0DD
:1017E000082E18D00C2E01D1032F14D06068B0F54C
:1017F000803F17D0B0F5A02F286817D020F4803094
:101800002860286820F4802028606068E0B1FFF735
:10181000DDF9804614E02868800322D5606800283E
:1018200078D01EE0286840F48030EDE740F4802056
:101830002860F7E7FFF7CAF9A0EB08006428A4D8EE
:1018400028688003F6D50CE0FFF7C0F9804605E074
:10185000FFF7BCF9A0EB0800642896D8286880033D
:10186000F6D4207880073BD5042E11D00C2E01D160
:10187000022F0DD0E06801E092E1F1E00028286835
:101880001ED040F480702860FFF7A0F907460CE0F6
:10189000286840050CD5E0680028C1D008E000BFEA
:1018A000FFF794F9C01B022893D828684005F7D5A4
:1018B0006868217C20F0F85040EA016068600FE021
:1018C00020F480702860FFF781F9074605E000BF2B
:1018D000FFF77CF9C01B0228B1D828684005F7D46F
:1018E0002078000729D560690028D5F8940012D027
:1018F00040F00100C5F89400FFF768F9074604E0DE
:10190000FFF764F9C01B022899D8D5F89400800726
:10191000F6D512E000E120F00100C5F89400FFF7D1
:1019200055F9074605E000BFFFF750F9C01B022834
:1019300085D8D5F894008007F6D42078400766D57E
:10194000A86D0027C00008D4A86D40F08050A8659D
:10195000A86D012700F08050009053480168C90528
:1019600012D40168814641F480710160FFF72EF9BD
:10197000804605E0FFF72AF9A0EB080002286FD89F
:10198000D9F80000C005F5D5A068012816D00528B3
:10199000D5F8900017D020F00100C5F89000D5F8D8
:1019A000900020F0040000BFC5F89000A06841F24C
:1019B0008839C0B1FFF70AF980460FE0D5F89000EA
:1019C00040F00100F0E740F00400C5F89000F5E7B2
:1019D000FFF7FCF8A0EB0801494541D8D5F8900085
:1019E0008007F5D50EE0FFF7F1F8804606E000BF6E
:1019F000FFF7ECF8A0EB0801494531D8D5F8900085
:101A00008007F5D41FB1A86D20F08050A865A06AAA
:101A100038B302280AD00C2E7ED0286820F08070BF
:101A20002860286810F0205F77D0AAE0E868E26AB2
:101A300000F0030191422BD1216B00F070020901EB
:101A40001039914224D1626B00F4FE41B1EB022FB8
:101A50001ED1A26B00F40031072A03D0012202E05C
:101A60009DE089E00022914212D1A18F00F4C002D2
:101A700049084905A1F50011914209D194F8401097
:101A800000F0C06049084906A1F1007181425CD0B4
:101A90000C2E41D0286809E0001002406048000880
:101AA0000C000020040000200070004040017ED4A3
:101AB0002868C0007BD4286820F080702860FFF779
:101AC00085F8064605E000BFFFF780F8801B022876
:101AD00065D828688001F7D4D4E90B016FF00F02B4
:101AE00002EB01110843A18F5204490802EB415156
:101AF000626B41EA0221084394F840104FF07E42A5
:101B0000490802EB41610843A16B090940EA4140E1
:101B1000E968284A114001E049E02EE00843E86006
:101B2000286840F080702860E86840F08070E860C5
:101B3000FFF74CF8044604E0FFF748F8001B0228C2
:101B40002DD828688001F7D52FE0286880012CD493
:101B5000286840F080702860E86840F08070E86095
:101B6000FFF734F8044604E0FFF730F8001B0228C2
:101B700015D828688001F7D517E0E86820F0030041
:101B8000E860E8680C490840E860FFF71FF8044681
:101B900008E000BFFFF71AF8001B022802D9032053
:101BA000BDE8F88328688001F4D40020F8E701201C
:101BB000F6E700008C809DF9FFFFEEFE10B5401E99
:101BC000B0F1807F01D3012010BD4FF0E0246061AF
:101BD0000F21601702F07CF80020A061072020612F
:101BE000002010BD10B5040002D0606F10B107E0F6
:101BF000012010BD002084F87000204600F026F877
:101C0000242060672068016821F0010101602046FE
:101C100000F042FE0128ECD0606A10B1204600F0CE
:101C2000ABFD2068416821F49041416020688168E3
:101C300021F02A0181602068016841F00101016002
:101C40002046BDE8104000F0FBBD000010B586B096
:101C5000044614216846FEF700FB124920688842BA
:101C60001ED11148016E41F480410166016E01F4FC
:101C700080410591C16C41F00201C164C06C6946AC
:101C800000F002000590C02000900220019000208A
:101C9000029003200390072004900448FEF75EFEA4
:101CA00006B010BD0038014000100240000400489A
:101CB0002DE9F8430446406F1F4616460D4620287E
:101CC0004FD1CDB1C6B194F87000012849D00120A0
:101CD00084F870004FF00008C4F87C802120606711
:101CE000FEF774FFA4F850608146A4F85260A06823
:101CF000B0F5805F03D004E00120BDE8F8832069DF
:101D000028B12E465FF0000584F8708010E00026B0
:101D1000FAE78021204600F0E5FEB8B9C6B116F812
:101D2000010B21680885B4F85200401EA4F8520047
:101D3000B4F852004B464FF0000200970028E8D15B
:101D40004FF04001204600F0CDFE30B10320D4E733
:101D500035F8020BC0F30800E3E72020606700209D
:101D6000CBE70220C9E7FEE701688A69D243920700
:101D700001D400228A6200688169C943C90703D07F
:101D8000816941F001018161704700002DE9F04156
:101D90000446006890460E468069C043C00633D4AE
:101DA0000025202720688069C043800615D5701C57
:101DB000F8D0FEF70BFFA0EB0800B04201D8002ED0
:101DC000F0D154F8440F40F0200044F80409677043
:101DD000A57025700120BDE8F08121681020C86140
:101DE0002068C7612046FFF7BFFF54F8440B4168E5
:101DF000064A11404160206840F0040044F8200980
:101E00006777A5772577E5E70020E4E700E800FE9F
:101E1000F0B50568059C68684FF48066064FC1F30D
:101E2000090106EA545641EA02413E431943B043D0
:101E3000214308436860F0BDFF63FF032DE9F041D3
:101E40001D4617460E460446DDF8188008E0681C5B
:101E500006D0FEF7BBFEA0EB0800A8420BD855B198
:101E60002068806936EA000012D00020B842EED027
:101E70000020BDE8F08154F8440F40F0200044F801
:101E80000409202060700020A07020700120F0E77D
:101E90000120EBE72DE9F041002690460F4604466D
:101EA000202525E0424639462046FFF76FFF78BBE4
:101EB00020688069C043800613D420688169C943C3
:101EC000490701D4218DC1B9C56154F8440B41685B
:101ED000104A1140416044F820696577A67726775B
:101EE00016E0FEF773FEA0EB0800B84208D83FB139
:101EF00020688069C0434007D4D40020BDE8F08149
:101F000054F8440F40F0200044F80409657026702E
:101F10000120F3E700E800FE70B516460D460446C2
:101F20000DE0324629462046FFF730FF08B1012078
:101F300070BDFEF74BFE801BA84207D835B1206864
:101F40008069C0438006ECD4002070BD54F8440F73
:101F500040F0200044F80409202060700020A070A8
:101F60002070E4E770B516460D4604460FE0324691
:101F700029462046FFF70AFF08B1012070BD681C02
:101F800005D0FEF723FE801BA84207D835B1206894
:101F90008069C0438007EAD4002070BD54F8440F24
:101FA00040F0200044F80409202060700020A07058
:101FB0002070E2E710B504460B4820600B486060D3
:101FC00000200121C4E9020120616061E06120621A
:101FD000204600F00DF82046FEF72AFE2046BDE818
:101FE00010400021FEF7F8BD005800408126700027
:101FF00030B5204C87B0E06C40F00200E064E06C4B
:102000001D4D00F0020005904FF44060009012203A
:10201000019001200290032003900420049069465F
:102020002846FEF79BFC69462846FEF797FCA06D04
:1020300040F48000A065A06D00F480000590A06BC6
:1020400040F48000A063A06B20F48000A063002215
:102050000F212120FEF7D2FF2120FEF7C1FF002231
:102060000F212220FEF7CAFF2220FEF7B9FF07B09A
:1020700030BD000000100240000400482DE9F04F80
:1020800087B014216846FEF7E8F8C748C16C41F0F4
:102090001001C164C16C01F010010591C16C41F0E7
:1020A0000401C164C16C01F004010591C16C41F0EF
:1020B0000101C164C16C01F001010591C16C41F0E5
:1020C0000201C164C16C01F002010591C16C41F0D3
:1020D0000801C164C06CDFF8D49200F008000590DC
:1020E00000224FF48A714846FEF76BFD002248F249
:1020F00004114FF09040FEF764FD00224FF21401EE
:10210000AB48FEF75EFD002241F28101A948FEF7CF
:1021100058FD01225103A748FEF753FD00224FF45A
:102120001071A548FEF74DFD01222021A048FEF7C1
:1021300048FD012211464846FEF743FD40F21510C6
:10214000009001250024CDE90154694648460394D6
:10215000FEF704FC994E6A20CDE900066946029418
:102160004846FEF7FBFB680300909548CDE9010463
:1021700069469148FEF7F2FB3F200B27CDE90007A7
:10218000694602948C48FEF7E9FB03200090022088
:10219000CDE90104032003900820049069464FF024
:1021A0009040FEF7DBFB48F204100090CDE90154AB
:1021B00069464FF090400394FEF7D0FB0820009052
:1021C0000220CDE9010469464FF09040CDE9034576
:1021D000FEF7C4FB1020CDE90007694602944FF0DA
:1021E0009040FEF7BBFBE02000900220CDE9010407
:1021F000032003900520049069464FF09040FEF7BD
:10220000ADFB0095CDE9016469466948FEF7A6FB80
:102210000220CDE90007694602946548FEF79EFB5F
:102220004FF234000090CDE90154694660480394B0
:10223000FEF794FB4FF4207000900220CDE90104DA
:102240000620CDE9034069464846FEF787FB4FF478
:102250007C4000900220CDE9010403204FF00A08E1
:10226000CDE9030869464846FEF778FB4FF4406025
:102270004FF01209CDE900090320CDE902504FF0DB
:10228000040A6946CDF810A04948FEF767FB4FF4F1
:10229000407B0220CDF800B0CDE9010403200727E0
:1022A000CDE9030769464348FEF758FB4CF6044066
:1022B000CDE90006694602943E48FEF74FFB43F223
:1022C00081000090CDE9015469463A480394FEF735
:1022D00045FB4FF410700090CDE901546946364833
:1022E0000394FEF73BFB4FF4C070CDE9000669464E
:1022F00002943148FEF732FB6802CDE900046946DA
:102300004FF090400294FEF729FBBE020220009697
:10231000CDE901040320CDE9030869464FF0904060
:10232000FEF71CFB02200096CDE901040320039078
:102330000620049069462048FEF710FB022000901A
:10234000CDE9010403200390052004906946194853
:10235000FEF704FB782000900220CDE90104032061
:10236000CDE9030769461348FEF7F8FA0320CDE9E3
:102370000250CDE900B96946CDF810A00C48FEF72F
:10238000EDFA002211461720FEF738FE1720FEF75F
:1023900027FE002211462820FEF730FE2820FEF7F7
:1023A0001FFE07B000F00EB80010024000100048F9
:1023B00000040048000C004800080048000011100C
:1023C0000000211030BCBDE8C08F0000094808495A
:1023D00001604FF416514160002181600C22C16000
:1023E000C0E904128161C16101624162FFF7FABB79
:1023F0000038014094040020FEE770477047000059
:102400002DE9F041444C05468846E06800268107E6
:1024100028680DD0E16801F00301814216D1A8B10E
:10242000E0686968C0F30210401C88420ED120E0C9
:10243000012804D0022805D0032807D108E021682C
:10244000890701E021684905002907DB01265FE0D3
:102450002168890302D421684903F5E7E1686A68C5
:102460006FF00F0321F0730103EB021211430143DC
:10247000E160206820F080602060FEF7A7FB07463F
:1024800005E000BFFEF7A2FBC01B022837D820687A
:102490000001F7D4B8F1000F18D0B8F1010F1ED029
:1024A000287D4FF07E41400801EB4060A96840EA7A
:1024B00001202169194A114008432061206840F039
:1024C00080602060FEF782FB07461AE0A868E96892
:1024D0000002090940EA41402169114AEBE7288AD4
:1024E0001049400801EB4050A96840EA01202169E9
:1024F0000D4AE0E7FEF76AFBC01B022801D903265C
:1025000006E020680001F5D52069A969084320612B
:102510003046BDE8F081000000100240FF80FFF966
:10252000FF80FDFF0000E0FFFF809FFF2DE9F041ED
:102530003D4C06468846E0680025810730680DD08E
:10254000E16801F00301814216D1A8B1E068716829
:10255000C0F30210401C88420ED120E0012804D0B4
:10256000022805D0032807D108E02168890701E087
:1025700021684905002907DB012551E0216889030D
:1025800002D421684903F5E7E16872686FF00F0330
:1025900021F0730103EB021211430143E160206853
:1025A00020F080502060FEF711FB074605E000BFD9
:1025B000FEF70CFBC01B022829D820688000F7D446
:1025C000B8F1000F15D0307C4FF07E41400801EB90
:1025D0004060B16840EA01206169144A1140084333
:1025E0006061206840F080502060FEF7EFFA0746F7
:1025F0000FE0B068F1680002090940EA41406169F2
:102600000B4AEBE7FEF7E2FAC01B022801D90325CB
:1026100006E020688000F5D5606971690843606153
:102620002846BDE8F081000000100240FF80FFF95D
:10263000FF80FDFFF8B51C4D06460024A86DC000C4
:1026400002D5FEF741FD0DE0A86D40F08050A86571
:10265000A86D00F080500090FEF736FDA96D21F0C6
:102660008051A965B0F5007F04D0802E07D94FF0C6
:1026700003040AE0802E08D9A02E01D804E001D17D
:10268000022402E0702E00D101240848016821F0E4
:10269000070121430160006800F00700A04201D05B
:1026A0000120F8BD0020F8BD0010024000200240CB
:1026B0000148FFF77FBC0000480400207047FEF788
:1026C0003FBC30B5B9B0442122A8FDF7C6FD1421A6
:1026D00033A8FDF7C2FD88216846FDF7BEFD102036
:1026E00001252290002428956020CDE92940022070
:1026F0002821CDE92C05CDE92E510721CDE9301057
:10270000329022A8FEF7C6FF0F2033900320CDE9B8
:1027100034043694042133A83794FEF7B5FE684696
:1027200000950E94FEF7D8FC6802FEF799FC39B0CC
:1027300030BD00000D48016841F4700101600C4893
:10274000016841F001010160002181600268094BCC
:102750001A4002608214C260026822F48022026081
:1027600081610249C00380390860704788ED00E04C
:1027700000100240FFFFF6EA90F82410C90706D0C7
:1027800001684A68836A22F400321A434A6090F86A
:102790002410890706D501684A68C36A22F480328A
:1027A0001A434A6090F82410490706D501684A6820
:1027B000036B22F480221A434A6090F82410090720
:1027C00006D501684A68436B22F400421A434A6006
:1027D00090F82410C90606D501688A68836B22F434
:1027E00080521A438A6090F82410890606D5016841
:1027F0008A68C36B22F400521A438A6090F824104E
:10280000490611D501684A68036C22F480121A4304
:102810004A60016CB1F5801F06D101684A68436CBB
:1028200022F4C0021A434A6090F82410090606D523
:1028300001684A68806C22F4002202434A607047B3
:10284000F8B500260446C667FEF7C0F905462068BD
:1028500000686FF07E47000708D52B4600224FF432
:1028600000112046009700F03DF960B9206800682B
:1028700040070AD52B4600224FF4800120460097DE
:1028800000F030F908B10320F8BD20206067A06790
:1028900084F870600020F8BD2DE9F041044601681D
:1028A00080682269E3691043626900251A43104376
:1028B000824F0A68824B1A4002430A6020684168CE
:1028C000E26821F44051114341602168A069B94296
:1028D00001D0226A10438A6822F4306202438A607F
:1028E0007849226878488A420DD1D0F8880010F0E3
:1028F000030006D0012866D0022854D0032851D105
:1029000063E001204FE071498A420BD1D0F8880082
:1029100010F00C0047D0042845D0082851D00C28CE
:1029200040D152E06A498A420BD1D0F8880010F0B9
:10293000300038D0102846D0202842D0302831D15D
:1029400043E064498A420BD1D0F8880010F0C000FF
:1029500029D0402837D0802833D0C02822D134E075
:102960005D498A420ED1D0F8880010F440701AD028
:10297000B0F5807F27D0B0F5007F22D0B0F5407F42
:1029800010D122E0BA420DD1D0F8880010F4406096
:1029900009D0B0F5806F16D0B0F5006F11D0B0F54A
:1029A000406F12D010204D4B00264FF40041BA4228
:1029B0002ED160B1022813D004280BD0082874D17E
:1029C0000DE00220EFE70420EDE70820EBE7FEF73B
:1029D000EBFD01E0FEF70CFE030001D169E00B46C0
:1029E000626802EB420098425FD8B3EB023F5CD8CA
:1029F000190E180273084FEA3207C0195941002313
:102A0000FDF7DEFB364AA0F5407191424FD94CE00C
:102A1000E2694FF6EF778A4228D1092845D2DFE8EC
:102A200000F0050811440D4444441000FEF7BCFDBD
:102A300001E0FEF7CBFD030004D13AE0FEF7D8FD3C
:102A4000F9E70B466068590001EB5001B1FBF0F06B
:102A500080B2A0F11001B94227D84FF6F0710140C1
:102A6000C0F3420001432068C16022E009281CD263
:102A7000DFE800F00508111B0D1B1B1B1000FEF703
:102A800093FD01E0FEF7A2FD030004D111E0FEF783
:102A9000AFFDF9E70B46606803EB5001B1FBF0F0C6
:102AA00080B2A0F11001B94201D9012501E02168ED
:102AB000C860266628466666BDE8F0810080004052
:102AC000F369FFEF0038014000100240004400406D
:102AD00000480040004C0040005000400024F4003A
:102AE000FFFC0F002DE9F0479A4617460E460446B4
:102AF0004FF000094FF02008089D39E0681C37D0DE
:102B0000FEF764F8A0EB0A00A84222D80DB32068B3
:102B1000016849072CD5C069C043000528D4216845
:102B20004FF4006008622068016821F4D0710160F0
:102B30002068816821F001018160C4F87480C4F8C4
:102B40007880C4F87C8000BF84F870900320BDE8D2
:102B5000F0872068016821F4D071016020688168E5
:102B600021F001018160C4F87480C4F87880EBE73B
:102B70002068C06936EA000004D00020B842BDD009
:102B80000020E4E70120F9E7FEE700007CB50446F9
:102B9000002094F8DA200D46012A03D0022A01D041
:102BA000032A14D101AB6A460121204600F05CF9EA
:102BB000009A4FF47F018A4202D8019A8A4206D9CC
:102BC000002804D125B10F49204600F0E3FF7CBD69
:102BD0000422FF21204600F041FC0546002270211E
:102BE000204600F03BFC05430022FF21204600F078
:102BF00035FC054300228021204600F02FFC2843AD
:102C00007CBD00008F020020F8B50646002401229A
:102C10000B21304600F022FC074600220B213046F3
:102C200000F01CFC40EA07056A461321304600F01C
:102C3000D3FA641C9DF800102843E4B2490704D07D
:102C4000032C04D20028E2D0F8BD032CFCD36FF093
:102C50000B00F8BD2DE9F04190B005460022882117
:102C600000F0FCFB002685F8F0604FF47A70A5F8C0
:102C70004E014FF4C870A5F850014348C5F85401FF
:102C800042482E62C5F8D4006946284600F080F814
:102C9000040009D18DF800608DF80160402269467A
:102CA00005F11000FDF7C0FA6420A5F834014FF4D7
:102CB0006170A5F836014FF4FA70A5F838014FF4A9
:102CC0002060A5F83A014FF0010885F84C810027F3
:102CD000002C54D1B9B20122284600F0FDFA7F1C25
:102CE0000446062FF4DBE4BB00220221284600F054
:102CF000F3FA040043D100220321284600F0ECFA45
:102D000004003CD100220421284600F0E5FA04002A
:102D100035D100220521284600F0DEFA04002ED12C
:102D20004FF490120021284600F017FB040026D132
:102D30004FF480420121284600F00FFB04001ED111
:102D40004FF40C120221284600F007FB040016D1B4
:102D500000220321284600F000FB04000FD1FF20D1
:102D600000E00CE085F8300102460121284600F021
:102D700075FB040085F8328101D185F8156110B02A
:102D80002046BDE8F0810000856B0100A4700900B9
:102D900070B506460C46007C01F8080B304600F082
:102DA00037F8002833D1207304F11001304600F0C9
:102DB000CBF900282BD104F11401304600F0D6F8ED
:102DC000002824D1002501E0002820D104EB850251
:102DD000A9B23046243200F06DF8002817D16219EC
:102DE000A9B23046183200F059F86D1C062DEBDB05
:102DF00000280CD104F13C01304600F08AF900288B
:102E000005D1211D3046BDE8704000F0ADB870BD61
:102E10003EB50C46054602AAF82100F015FA002836
:102E20000ED16A460421284600F0EAF9002807D1AD
:102E3000BDF8081029B1009AB2FBF1F12160A96137
:102E40003EBD2168FBE738B50C466A46132100F009
:102E5000C3F99DF8001001F0070211F0180F22606D
:102E600001D06FF0050038BDF8B515461C46064682
:102E70006A460E2100F0E8F9BDF800100905C908FE
:102E80002960002809D16A460C21304600F0DCF99F
:102E9000BDF800100905C9082160F8BD03460020EF
:102EA000062902D3001F002102E0194491F82810DE
:102EB00011707047F8B504460020154606292ED239
:102EC000DFE801F00305191B1D1D646B25E06A4650
:102ED0004421204600F0B8F9002803D1BDF80010C5
:102EE0004FEA412606D1EEB12E604FF00101A663F4
:102EF00084F82910F8BDE46B0FE0246C0DE06A46FD
:102F00004FF06401204600F09FF9002804D100BF73
:102F1000BDF800104FEA4124ECD12C60F8BD6FF0F1
:102F20000300F8BDA16B29604FF00001E0E77CB51C
:102F30000C4690F8DA100025012604290AD06A46CA
:102F4000142100F049F900280BD19DF80010C907A1
:102F500006D007E001A9FFF776FF0199042901D007
:102F600025707CBD26707CBD00F053BC00F0B3BC66
:102F7000F0B58DB00C4605460C2302AA142100F0D2
:102F800081F906007ED10021A17521609DF8130012
:102F90009DF81220616000EB02209DF80F209DF843
:102FA0000E304FF47A7E02EB03221204D209E26063
:102FB0009DF811309DF8106080B203EB06231B04CE
:102FC000DB0923619DF80B309DF80A6003EB0623B3
:102FD0009BB2A382B5F84E619DF8087095F831C197
:102FE00076451FD0464306F5FA7696FBFEF02E8C0A
:102FF00095F81CE080B2B6B2BEF1000F12D05E436D
:10300000B2EB262F08D1BCF1000F02D042F2B8205B
:1030100008E048F6E0200DE05043A2EB2626B0FB86
:10302000F6F080B2BCF1000F04D08108218180014C
:10303000E07501E02081E1750CA8CDE9004039463A
:10304000284600F063FC060025D19DF8300020766C
:1030500005F150011C220D4605A8FDF7E5F8208971
:10306000ADF81C00E07D8DF82B006089ADF81E00E6
:1030700060680690E068089020690990A08AADF821
:10308000280000E007E0207E8DF82C001C2205A916
:103090002846FDF7C9F80DB03046F0BD38B50546F5
:1030A00000200C468DF800006A460121284600F0F9
:1030B00093F800282AD123469DF8002000212846B5
:1030C00001F0A2FB002821D1A31C9DF800200121C2
:1030D000284601F099FB002818D1631C9DF80020B8
:1030E0000221284601F090FB00280FD1E31C9DF837
:1030F00000200321284601F087FB002806D1231D6C
:103100009DF800200421284601F07EFB38BD00F028
:1031100014BD38B50C4605466A46012100F05CF83E
:1031200000280BD19DF8001085F83011090601D553
:10313000012100E00021217085F84C1038BD0246C5
:103140000020127F0A70704738B50D4604466A4663
:10315000202100F079F8002807D1BDF8001029B12E
:10316000C900296021620121217738BD216A2960C7
:103170000021F9E770B5047C054614B900F016F992
:1031800010B9284600F058FD50EA040102D103218D
:1031900085F8321170BD70B50C460546002100F06F
:1031A00089F8002810D12846FFF7E4FF00280BD14A
:1031B00021462846FFF7DCFE002805D12846BDE859
:1031C00070400021FFF720BD70BD10B50024022023
:1031D000FDF7A4FB204610BDF7B5164607460024B0
:1031E000012201A900F051FD6FF0130528B9012259
:1031F0003146384600F039FD00B12C462046FEBD70
:10320000F7B5164607460024012201A900F03DFD4E
:103210006FF0130528B904220A49384600F025FD4D
:1032200008B12C460BE00748C178027801EB026137
:1032300042788078120402EB002008443060204677
:10324000FEBD000014050020F7B516460746002411
:10325000012201A900F019FD6FF0130528B902221F
:103260000749384600F001FD08B12C4605E0044846
:103270004178007801EB002030802046FEBD000040
:10328000140500202DE9FF4117461E468046002404
:10329000012201A900F0F9FC6FF0130528B93246AC
:1032A0003946404600F0E1FC00B12C4604B020460F
:1032B000BDE8F0810246002003290BD003DC49B1B0
:1032C000012904D106E0142904D0152902D06FF099
:1032D00007007047117470472DE9F0410446002043
:1032E0000D461646071F034601460246062D02D329
:1032F0003846BDE8F08156B104EB85014B6B0121E6
:10330000062DF5D2DFE805F005080F121518012289
:10331000F6E784F8281017E0C3F34F224421204633
:1033200000F0AEF80EE084F82A100DE084F82B10BF
:103330000AE05300FE2201E01301EF226021204643
:1033400000F077F80028D4D1611926B15FF00102AE
:1033500081F82820CDE70022FAE770B51446002254
:10336000431800EB810593F82830DBB1C4F34F23F9
:10337000062914D2DFE801F00305080A0C0C4463A7
:1033800010E01A46442105E0C4630BE0046409E040
:103390001A46642100F074F8020003D003E06FF0D5
:1033A000030200E06C63104670BD0000F8B50646ED
:1033B000007C012538B10424012825D003282CD015
:1033C0006FF00700F8BD01220021304600F046F8FA
:1033D0008DF800500028F5D1002405E024B16A469C
:1033E00000213046FFF7F8FE9DF80020641C25EA16
:1033F0000201014305D0C82CE4D300BF6FF00600E2
:10340000F8BDC82CEAD3F9E701213046FFF7BEFB2F
:10341000022207E086F83241F8BD01213046FFF76D
:10342000B5FB04220021304600F018F80028F1D046
:10343000F8BDF8B515461C460E4607466A46FFF726
:10344000CBFE002809D19DF8002031462A402243B6
:103450008DF80020384600F001F8F8BD034610B59D
:10346000064800240170427001460222184600F00E
:103470000CFC08B16FF01304204610BD14050020A9
:10348000034610B5074800240170110A417082708C
:1034900001460322184600F0F8FB08B16FF0130450
:1034A000204610BD1405002070B51C4600251346AB
:1034B00006463F2C01D9281F70BD0848224600F857
:1034C000011B1946FCF7B0FE621C0449304600F0AF
:1034D000DCFB08B16FF01305284670BD1405002011
:1034E0002DE9F047B0F850C1D0F85401DDE90A8663
:1034F0000CFB00F58035DDE908972C0A4FF0000A37
:1035000004FB0CF4554652B1880200EB5200B0FBAC
:10351000F2F000EB4000404300F50040050C07F5D9
:103520000040000C0622C01CB0FBF2F003FB09F3C4
:1035300003F50043190C4943C0EBC000B0F5803FD0
:1035400001D31C4808E0FF1CB7FBF2F0C0EBC00041
:1035500000F50040000C4043084400EB5800B0FB6D
:10356000F8F08003FE227F30B0FBF2F068434FF4A6
:103570007A7100F5FA70B0FBF1F0000100F5FA7015
:10358000B0FBF1F7402004F12001B1FBF0F000F0B6
:10359000ECFA054627B104EB5700B0FBF7F000E06A
:1035A000002000F0E2FA3560854200D930605046D4
:1035B000BDE8F0870000F0FF01EBC10140F2776049
:1035C0000902A1FB000170472DE9FF4F87B00446B7
:1035D000006A0690894608694FF47A714843000CE6
:1035E0000190D9F80C000590DFF8BCB14FF44816F3
:1035F00004AA4946204600F07BFA06AA494620461E
:1036000000F084FA80464FF47A710498069D48438E
:1036100000F50040070C4D43B54200D93546B8F1DE
:1036200000007DD194F8E06020463246D4F8DC10EA
:1036300000F0C3F8824694F8E8202046D4F8E4105D
:1036400000F0BBF801460320082E00D102205144AF
:103650004143C8024FF47A7100F5FA70B0FBF1F003
:1036600040F27762504300F5FA70B0FBF1FA04982B
:103670008030010A01FB0AF08030060A080204903B
:103680000FB14EB109E00999C1F800B0C4F83CB1DE
:103690000A980021016083E001264FF448700090F1
:1036A000019842490004B0FBF7F0884200D908466F
:1036B0004FF4167100FB01F806EB4600800000F0A5
:1036C00054FA40000190B9F808103948C5EB074298
:1036D00041434FF47A7002F5FA72B2FBF0F205EB57
:1036E000074303F5FA73B3FBF0F01202B2FBF0F0FC
:1036F000002800DA404241F25C22B1FBF2F1000204
:10370000C0F58030484300F50040000C00F58030E3
:1037100040084043850B4FF4487105FB01F000E081
:103720003FE000F50040000C10FB00F108F5004000
:10373000000C4043084400F018FA000464213230C1
:10374000B0FBF1F10198B1FBF0F040F6B531484320
:1037500041F2883108444900B0FBF1F04FF4704168
:10376000884200D90846404341F20411084400F061
:10377000FCF94FF47A7148430EB1584500D95846C8
:1037800009992B460860C4F83C010A98DDE9041247
:10379000CDE902A0CDF804802046FFF7A1FE8046C7
:1037A00040460BB000F006B8AE878F026666660032
:1037B0009A99060030BCBDE8C08F00B50B46114693
:1037C000FFF7FAFE4FF47A7100F5FA70B0FBF1F0F2
:1037D0004B4303EB5001B1FBF0F000BD00B50B46CD
:1037E0001146FFF7E9FE4FF47A7100F5FA70B0FB6D
:1037F000F1F0434303EB5000B0FBF1F000BD014694
:10380000C0B2090A8840401C70474000801CC0B20A
:10381000704730B585B005464FF4FA60029000203D
:10382000039040F6363008600C4669462846FFF79C
:1038300035FC00284DD19DF8001029B99DF80110E4
:1038400011B99DF8021011B302AA0221284600F016
:10385000C4FE00283DD19DF8001029B102992268CC
:1038600001F24E21114421609DF8021031B10299FC
:10387000226801F2B22102EB410107E09DF801103C
:1038800029B10299226801F52571114421609DF842
:10389000031061B103AA0321284600F09EFE03999C
:1038A000226801F5257111442160002811D19DF88D
:1038B000041061B104AA0421284600F08EFE049988
:1038C000226801F2262111442160002801D12168DB
:1038D000696105B030BD38B50C4640F2FF756A46E7
:1038E0002821FFF7B1FC00280ED1BDF80010C1F36C
:1038F0000B02ADF80020AA424FF0FA0101DDA2F55B
:10390000805212FB01F1216038BD00002DE9FF4F0C
:1039100093B00027219D8DF830708DF828700646F1
:10392000B946B8468DF810708DF81470ADF81C705B
:10393000C1F3C3040D97A4B1052C12D0072C10D0ED
:103940000C2C0ED00D2C0CD00E2C0AD00F2C08D025
:10395000002083460122FF213046FFF77FFD10B192
:1039600006E00120F5E707AAB6213046FFF76CFC18
:10397000BDF81C104FEA412A20B90022FF21304631
:10398000FFF76CFDC6F844A120B904AA0021304617
:10399000FFF784FA9DF81010A9B1D0B90DAB02AAB7
:1039A00030462099FFF710FE98B920990D980EAA7D
:1039B000488100213046FFF77DFA0E9919B1029A2D
:1039C0008A4200D9012720B90AAA02213046FFF70E
:1039D00065FA9DF8281059B180B90FAA0221304626
:1039E000FFF768FA0F9919B18A4501D94FF001091B
:1039F00020B905AA03213046FFF750FA9DF81410AC
:103A000099B198B9169820B1159801021698B1FB92
:103A1000F0F0824610AA03213046FFF74BFA1099C6
:103A200019B18A4501D24FF0010810B1287848B386
:103A30002BE0BBF1000F01D0FF2013E0012C10D0D0
:103A4000022C0ED0032C0CD0062C0DD0092C0BD040
:103A5000082C04D00A2C02D0B9F1000F06D00320A4
:103A600000E00520287010E00420FBE7042C02D0C1
:103A7000B8F1000F01D00220F4E70FB10120F1E707
:103A8000002028702099002048810CAA012130468E
:103A9000FFF704FA002823D19DF8101001B10FB1EF
:103AA000012100E0002186F82E10042C1BD09DF887
:103AB0003010C1B15FF0000186F82F109DF828107A
:103AC00011B15FEA090100D0012186F830109DF89C
:103AD000141011B15FEA080100D0012186F83110FD
:103AE00017B000F002B80121E6E730BCBDE8C08F96
:103AF00038B51446CA6822606A4600F007F8002804
:103B000003D12168009A1144216038BDF8B50646FA
:103B100000200D461060144669463046FFF70FFB43
:103B2000002809D19DF80010002905D0A98A326A21
:103B300051438031090A2160F8BD38B5144621B1DE
:103B4000012905D06FF003010DE06A46502101E024
:103B50006A467021FFF740FB010004D19DF8000088
:103B6000FFF753FE2070084638BD024600204FF094
:103B7000804100E089089142FCD808E04318934254
:103B800003D8D21A01EB500000E040088908002950
:103B9000F4D17047F8B5074600200D460446061FCD
:103BA00013E0CBB2641CFF2B05D0042B0CD8295D8D
:103BB00000206A4639E0295D641C61B1012912D0F8
:103BC000022918D003291ED03046295D002901D0D2
:103BD0000028E6D0F8BD2A5D641C295D01EB0221B6
:103BE000A7F8341116E0295D641C2A5D02EB01215F
:103BF000A7F836110EE02A5D641C295D01EB022155
:103C0000A7F8381106E0295D641C2A5D02EB01214A
:103C1000A7F83A11641C295D0029C2D1F8BD00BF84
:103C200015F804C002F800C0401C641C9842F7DB81
:103C30003846FFF739FCC8E738B5054600208DF84F
:103C40000000044669462846FFF771F9002807D1AD
:103C50009DF80010012903D0641CC82C01D3C01F9B
:103C600038BD2846FFF7B1FAECE738B502F10A0390
:103C7000009393B290F85C21D0F8580142F001040F
:103C80000A462146FDF730F838BD38B502F10A037F
:103C9000009393B290F85C410A46D0F8580121464F
:103CA000FDF7B8F838BD00000FB4084B10B504A9F3
:103CB00002AA039800F0F2F8044602A9002000F0DE
:103CC00087FC204610BC5DF814FB0000D1450008BD
:103CD0000907090E002804DB00F1E02080F8001439
:103CE000704700F00F0000F1E02080F8141D7047CD
:103CF00002E008C8121F08C1002AFAD170477047B5
:103D0000002001E001C1121F002AFBD17047000012
:103D10002DE9FF5F82B00021DDE90430020DDDF8FE
:103D200040B0034318D044F61050A2F2FF32424391
:103D30001514119801281FD0A5EB0B00401C5FEA59
:103D4000000A4FF000064E4FDFF83891B04650465B
:103D500015D5CAF1000413E0119801244AA30128E3
:103D600001D16FEA0B010298119AC0E90031C0E954
:103D7000024206B000F08EB8CBF10000DFE7044647
:103D80000021404A491842EB0450CDE9001012E0EE
:103D9000E00707D032463B4640464946FCF792FCD6
:103DA0008046894632463B4610461946FCF78AFC57
:103DB00006460F466410002CEAD1DDE90401DDE976
:103DC0000023BAF1000F06DAFCF77CFC42464B46B2
:103DD000FCF778FC05E0FCF752FA42464B46FCF74C
:103DE0004EFA04460E460022284BFCF7F9FC03D895
:103DF0004FF0FF30014607E00022254B20463146B8
:103E0000FCF7B1FBFCF7D3FC102409E0002C0ADB23
:103E10000A220023FCF7D4F9039B30321A55641EA2
:103E200050EA0102F2D1641C039AC4F11103144454
:103E3000119A012A03D0012208430DD10AE0084358
:103E400004D000204FF0110B119072E7A3EB0B058B
:103E50006D1E0DE05B4504DD4FF0000205F101052C
:103E600004E003DA4FF00002A5F10105002AECD0CE
:103E700002981199C0E90231C0E9004579E70000D4
:103E8000000014400000F03F300000000000F0434C
:103E90000000E03F30BCBDE8C09F00002DE9FF4FAF
:103EA00095B09B468946064600250FE2252877D126
:103EB00000242746F84A0121059400E0044316F83F
:103EC000013F203B01FA03F01042F7D130782A2855
:103ED00011D06FF02F033078A0F13002092A16D8E4
:103EE000059A44F0020402EB820203EB4202104402
:103EF000761C0590EFE759F8042B0592002A03DAA7
:103F0000504244F40054059044F00204761C30788A
:103F10002E2816D116F8010F44F004042A280DD0DB
:103F20006FF02F023078A0F13003092B09D807EB8E
:103F3000870302EB4303C718761CF3E759F8047BA9
:103F4000761C30786C280FD006DC4C2817D06828F7
:103F50000DD06A2814D104E0742810D07A280FD12B
:103F60000DE044F400140AE044F4801401E044F449
:103F700040147278824202D104F58014761C761CBB
:103F8000307866280BD013DC582877D009DC00285D
:103F900075D04528F6D04628F4D047281AD19DE19F
:103FA00018E0632835D0642879D0652812D195E1CE
:103FB000702873D008DC6728F1D069286FD06E288C
:103FC0000DD06F2806D1B5E073282CD0752875D098
:103FD000782874D05A46179990476D1C75E1C4F340
:103FE0000250022809D003280DD0D9F80010042867
:103FF0000DD00D6009F1040967E1D9F80010EA1746
:10400000C1E90052F6E7D9F800100D80F2E70D7013
:10401000F0E719F8041B8DF8001000208DF801005E
:10402000EA46012003E059F804AB4FF0FF30610786
:104030004FF0000102D40DE008F101018846B942B9
:104040000FDA8045F8DB1AF808100029F4D108E0EF
:1040500008F1010188468142FADB1AF808100029AC
:10406000F6D105985B46A0EB080721463846179A1B
:1040700000F097FA284400EB080507E04DE029E13D
:104080000DE01AF8010B5A4617999047B8F101084C
:10409000F7D25B4621463846179A13E142E00A22DE
:1040A0000092C4F302524FF0000A022A08D059F8D5
:1040B00004CB032A4FEAEC710AD00DE029E02AE094
:1040C00009F1070121F00702F2E802C1914609E077
:1040D0000FFA8CFC4FEAEC71042A03D14FFA8CFCE6
:1040E0004FEAEC71002907DA0A460021DCF1000CE6
:1040F00061EB02012D2202E0220504D52B228DF86E
:104100000420012203E0E20701D02022F7E79046D5
:1041100059E00A2102E010220DE010214FF0000AC0
:1041200000910BE010224FF0000A44F0040408272D
:10413000009203E008224FF0000A0092C4F30252FA
:10414000022A05D059F804CB0021032A08D009E03F
:1041500009F1070121F00702F2E802C1914605E0EA
:104160001FFA8CFC042A01D10CF0FF0C4FF0000860
:10417000220728D5702806D0009B83F0100353EA4D
:104180000A0305D00EE040228DF80420012208E049
:104190005CEA010206D030228DF804208DF805007B
:1041A00002229046009B83F0080353EA0A030AD1D7
:1041B0005CEA010201D1620705D530228DF80420A6
:1041C0004FF001087F1E582804D034A003900EA899
:1041D00002900DE036A0F9E753466046009AFBF7DF
:1041E000EFFF84460398825C0298401E02900270A2
:1041F0005CEA0100F0D1029806A9081A00F1200A31
:10420000600702D524F4803400E00127574502DD21
:10421000A7EB0A0000E0002000EB0A0100900598DF
:104220004144401A0590E00306D45B462146179AA4
:10423000059800F0B6F90544002706E001A85A46A3
:10424000C05D179990476D1C7F1C4745F6DBE00366
:104250000CD55B462146179A059800F0A2F9054453
:1042600004E030205A46179990476D1C0099481E6B
:1042700000900029F5DC08E0029802995A4600787F
:10428000491C0291179990476D1CBAF10001AAF1DF
:10429000010AF1DC65E10000092801003031323308
:1042A0003435363738396162636465660000000072
:1042B000303132333435363738394142434445465C
:1042C0000000000000F05BF90544761C30780028FF
:1042D0007FF4ECAD19B0284600F04EB9620700D467
:1042E000062709F1070222F0070CFCE80223E14649
:1042F00003F000485FEA080C02D00FF2702C0DE0CA
:104300005FEA045C02D50FF2682C07E05FEAC47C28
:1043100002D00FF2602C01E0AFF2700C4FF0FF38CA
:1043200023F00043CDF850C065280CD006DC4528AA
:1043300009D046281DD047283DD13DE0662818D039
:1043400067287ED138E00021112F01DB112000E029
:10435000781CCDE9000106A90EA8FFF7D9FCDDE91C
:104360000F010E9A03910021009207F1010A0491B6
:104370004DE04FF000400097CDE9011006A90EA8CE
:10438000FFF7C6FCDDE90F0203920E9B1199002294
:10439000DDF80CA00093049211B9791C00EB010A1E
:1043A000B7EB0A0004D4C0F1FF3007F1010A049012
:1043B000AAEB0700019044E0012F00DA0127002159
:1043C000112F01DD112000E03846CDE9000106A9DA
:1043D0000EA8FFF79DFCDDE90F010E9A0391002165
:1043E00004910092BA4621070CD40399514500DA92
:1043F0008A46BAF1010F05DD009AAAF10101515C6C
:10440000302908D0B84202DA10F1040F06DA01218F
:10441000CDE9011015E0AAF10101E9E7002805DC6A
:10442000049901440491AAEB000102E0411C5145AA
:1044300000DD8A460499401A401C01904FF000406C
:104440000290200704D40198504501DBCDF8048088
:1044500000208DF84F0002980DF14F07B0F1004F8A
:1044600025D02B200E9002984FF0020800280CDA7D
:10447000404202902D200E9007E00A210298FBF79F
:10448000A9FF3031029007F8011DB8F10001A8F131
:104490000108F2DC02980028EFD1791E0E9808700E
:1044A000307800F0200040F0450007F8020D12A817
:1044B000C01B00F107081498007800B1012000EB40
:1044C0000A01019801EBE07105984144401A401E31
:1044D0000590E00306D45B462146179A059800F044
:1044E00060F805441498007818B15A461799904717
:1044F0006D1CE00324D55B462146179A059800F011
:1045000050F805441CE00498002807DBDDE90301AE
:10451000884203DD0098405C179901E0179930202C
:104520005A469047049805F10105401C04900198F3
:10453000401E019004D12E205A46179990476D1CB9
:10454000BAF10001AAF1010ADDDC05E017F8010B60
:104550005A46179990476D1CB8F10001A8F101085F
:10456000F4DC5B462146179A0598ABE62D00000067
:104570002B0000002000000030BCBDE8C08F2DE9FA
:10458000F041044600251E461746880404D405E081
:1045900039462020B0476D1C641EF9D52846BDE879
:1045A000F0812DE9F041044600251E469046C803DF
:1045B00001D5302700E02027880404D505E04146D6
:1045C0003846B0476D1C641EF9D52846BDE8F08119
:1045D0000A68531C0B60107070472DE9F0410024ED
:1045E0008AB0174680468DF81C402546ADF8184025
:1045F000264641B1012906D0022904D0032912D050
:10460000042929D05DE06A4600214046FEF77FFD7F
:10461000040005D107AA46214046FEF7DDFD044609
:104620009DF81C0015E06A4600214046FEF76FFD2C
:10463000040046D16A4600214046FEF768FD0400AA
:1046400005D106AA51214046FEF7FEFD0446BDF8FD
:104650001800FFF7D4F82DE004A94046FEF71EFD30
:104660009DF81300002590B16A4600214046FEF7F0
:104670004EFD04001DD106AA51214046FEF7E4FD7F
:104680000446BDF81800FFF7BAF885B28CB96A463F
:1046900001214046FEF73BFD04000AD108AA712122
:1046A0004046FEF7D1FD0446BDF82000FFF7A7F80D
:1046B00086B2701B81B29DF800204046FFF78EF84D
:1046C00005463D600AB02046BDE8F0819AB0FCF78F
:1046D0003FFCFDF7F6FFFDF7D1FCFDF777FEFDF798
:1046E000E7FF402000900120019002900220284C1A
:1046F000039069462046FCF731F90122402120460B
:10470000FCF75FFA4FF47A70FCF708F92148FEF7DE
:10471000A1FA3224202220A111A8FBF785FD4FF435
:10472000FA6528216846FBF798FD0AA91948FEF7A3
:1047300032FDBDF83000001B80B2A84203D911A899
:1047400000F07EF816E01C490968D1B1FBF706FEBF
:104750009FED1A1B53EC112BFBF791FDFBF71EFE8F
:10476000FBF709FE41EC100B16A153EC102B684629
:10477000FFF79AFA684600F063F86420FCF7CEF879
:10478000CFE7024618A16846FFF78EFAF2E700006D
:1047900000080048100000204572726F7221204FFF
:1047A000626A656374206F7574206F662072616E33
:1047B000676521200A0D0000980100206666666684
:1047C0006666394044697374616E636520746F2056
:1047D0004F626A6563743A20252E326620696E63E3
:1047E000686573200A0D000044697374616E636527
:1047F00020746F204F626A6563743A202564206DCF
:104800006D200A0D0000000010B500201870052969
:1048100013D2DFE801F00306090C0F00C2F3001108
:1048200009E0C2F3C00106E0C2F3800103E0C2F375
:10483000801100E0D109197010BD6FF0030010BDA8
:1048400010B50446FBF714FD214682B2BDE81040C6
:104850004FF0FF330148FDF72BBA0000940400200D
:104860000000000000000000010203040607080920
:10487000A0860100400D0300801A060000350C00E0
:1048800040420F0080841E0000093D0000127A00A3
:104890000024F40000366E010048E801006CDC02E0
:1048A0000000000001020304C848000800000020C6
:1048B00048040000580800085C4B00084804002029
:1048C00010050000003D0008500701000000100026
:1048D000010004FF093D000101550100062D4804B7
:1048E00000205234140401FF019F301501FF000124
:1048F00009000110000111000124010125FF0175CB
:104900001B20094E2C01480001302021203630099F
:1049100001540001310401320301408301462501A5
:104920006000012700015006015100015296015616
:104930000801573001610001620001640001650057
:104940000166A045300B22320147140149FF014A9C
:104950006920097A0A017B0001782160201B233439
:104960000142000144FF0145260146050140400186
:104970000E0601201A0143402A2006340301354463
:1049800087117520094B09014C05014D0442301D6A
:1049900044000145200147080148280167000170D3
:1049A000040171010172FE0176000177B7230D0148
:1049B00069200680010101F8C6128EE4411241F31C
:1049C000311B51F9106701014F0201FF0E01000375
:1049D00001018401020A0103030104080105C80161
:1049E000060301078D0108080109C6010A01010B30
:1049F00002010C00010DD5010E18010F120110016A
:104A00000111820112000113D501141801151301BF
:104A1000160301178601180A011909011A08011B5A
:104A2000C2011C03011D8F011E0A011FD514310193
:104A30000121020122000123D501241801252201B0
:104A400026010127820128000129D5012A18012BFE
:104A50000B012C28012D78012E28012F9101306B9C
:104A600034380B01320001330B0134000135A10150
:104A700036000137A0013800013904013A28013B12
:104A800030013C0C013D04013E0F013F79014028FB
:104A900001411E01422F0143872024080B014600DB
:104AA00001470BBF2749A77A24064BA6014C0041BA
:104AB000124EF315B6242F00015180015209015303
:104AC0000801540101550001560F01577901580999
:104AD000015905015A00015B60015C05015DD101CE
:104AE0005E0C015F3CEC142C61D001620B0163038E
:104AF00001642801651001662A01673901680B010C
:104B00006902016A28016B10016C2A016D61016E56
:104B10000C016F9534110F01717901720001730B53
:104B200001740001750B9E140DA10178000179A09C
:104B3000017A00017BCB441F0401791D017B270111
:104B4000960E0197FE0198030199EF019A02019BCD
:0C4B5000440173070170A425B941010065
:040000050800018965
:00000001FF
